:02000000F629DF
:100008007B082000A2007C08A1007D08A0008031A8
:100018000B1C2C298C1855281C109C101C109C108B
:10002800D1309B00A62168217F302000B5007021C7
:100038000530FB000F30FC00F130FD00FD0B2228DD
:10004800FC0B2228FB0B222823009F150A309B005B
:100058001A309C001E15AB210B30FB002630FC002B
:100068005D30FD00FD0B3628FC0B3628FB0B3628CF
:100078000000000061302000B300B4013330B50047
:100088000030B600DB210930FB001E30FC00E430F4
:10009800FD00FD0B4D28FC0B4D28FB0B4D280000E7
:1000A80001008C199C281C109C101C109C10D1302D
:1000B8009B00A62168217F302000B5007021053003
:1000C800FB000F30FC00F130FD00FD0B6928FC0B34
:1000D8006928FB0B692823009F150A309B001A30FA
:1000E8009C001E15AB210B30FB002630FC005D3058
:1000F800FD00FD0B7D28FC0B7D28FB0B7D280000F7
:10010800000062302000B300B4013330B500003085
:10011800B600DB210930FB001E30FC00E430FD0096
:10012800FD0B9428FC0B9428FB0B9428000001007D
:100138000C1AE3281C109C101C109C10D1309B003A
:10014800A62168217F302000B50070210530FB0012
:100158000F30FC00F130FD00FD0BB028FC0BB0287F
:10016800FB0BB02823009F150A309B001A309C0017
:100178001E15AB210B30FB002630FC005D30FD0066
:10018800FD0BC428FC0BC428FB0BC428000000008E
:1001980063302000B300B4013330B5000030B6003E
:1001A800DB210930FB001E30FC00E430FD00FD0BB4
:1001B800DB28FC0BDB28FB0BDB28000001008C1A7A
:1001C8002A291C109C101C109C10D1309B00A621C1
:1001D80068217F302000B50070210530FB000F300A
:1001E800FC00F130FD00FD0BF728FC0BF728FB0B9A
:1001F800F72823009F150A309B001A309C001E1513
:10020800AB210B30FB002630FC005D30FD00FD0B00
:100218000B29FC0B0B29FB0B0B2900000000643099
:100228002000B300B4013330B5000030B600DB2144
:100238000930FB001E30FC00E430FD00FD0B2229D4
:10024800FC0B2229FB0B2229000001002700930147
:1002580020002208FB002108FC002008FD000900FE
:1002680023009E183929000034292000390823006A
:040278009A000800E0
:10027C002000FB01FA01F9018030F800F10CF00CC0
:10028C00031C51297408F90775080318750FFA0730
:10029C000318FB0A0310F01F59297408FA07750894
:1002AC000318750FFB07FB0CFA0CF90CF80C031C6C
:1002BC0044297B08F3007A08F2007908F1007808E9
:0402CC00F000080036
:1002D00021000C1120001C150C302500930408008F
:1002E0000130F000F10120001B08F0070318F10AAB
:1002F0003508F400F5013E210630F2007008F400E4
:100300007108F500720803198929F536F40CFF3ECF
:1003100083290430F1007408F0007108031993294F
:10032000F035FF3E8E2930307005F3007408F00080
:100330007508F100F136F00CF136F00C700825006C
:0C03400091000F3093057308930408002F
:0A034C00250091011312931208001E
:1003560034302000A7000130A8003930A900003051
:10036600AA00FF30A300FF30A4000030A500003033
:10037600A600FF30AB00FF30AC000030AD0000300F
:10038600AE00FF30AF00FF30B0000030B1000030EB
:10039600B20023009E1690309D0021008C140C1094
:1003A6002000911EDA2923001908F000D32908003D
:1003B6002000B70135088400360885000008B8001B
:1003C6003808003A0319F5293808B9003421200005
:1003D600B70A3708350784000030363D8500000827
:0603E600B800E329080045
:1003EC00F030210099003A308C0023008C013A3017
:1003FC0020008C00210095133A3024008C0003302F
:10040C00FB000830FC007730FD00FD0B0B2AFC0BC9
:10041C000B2AFB0B0B2A3A302700920093018830F1
:08042C008B006300172A192A56
:020000040001F9
:04000E00A43D1317E3
:00000001FF
